S01500004D696C6573746F6E653147756E2E7372656304
S113000045C0000060C000005EC000005CC000008D
S11300105AC0000058C0000056C0000054C0000080
S113002052C0000050C000004EC000004CC0000090
S11300304AC000007EC0000046C0000044C000006A
S113004042C0000040C000003EC000003CC00000B0
S11300503AC0000038C0000036C0000034C00000C0
S113006032C0000030C000002EC000002CC00000D0
S11300702AC0000028C0000026C0000024C00000E0
S113008022C0000020C000001EC0000011241FBEBA
S1130090CFEFD0E4DEBFCDBF11E0A0E0B1E0E4EDEE
S11300A0F5E000E00BBF02C007900D92A032B1074B
S11300B0D9F721E0A0E2B1E001C01D92A834B20753
S11300C0E1F7E8D185C29CCF6093060170930701E4
S11300D08093080190930901609343017093440154
S11300E0809345019093460108958BE080938100AD
S11300F08DE790E0909389008093880082E080935C
S11301006F001092850010928400809106019091F6
S11301100701A0910801B0910901809343019093D4
S11301204401A0934501B09346018FB780688FBF07
S113013008951F920F920FB60F9211248F939F93DD
S1130140AF93BF938091430190914401A0914501E5
S1130150B09146010197A109B1098093430190939D
S11301604401A0934501B0934601892B8A2B8B2B24
S113017099F481E0809347018091060190910701F1
S1130180A0910801B0910901809343019093440127
S1130190A0934501B0934601BF91AF919F918F9178
S11301A00F900FBE0F901F901895813081F0E1ECF5
S11301B0F0E0808188618083E2ECF0E080818660F9
S11301C0808383E38093C4001092C5000895E9EC12
S11301D0F0E0808188618083EAECF0E080818660D1
S11301E0808383E38093CC001092CD000895813006
S11301F029F48091C800882374F008958091C00088
S113020088238CF4A6ECB0E0E0ECF0E08C918081E3
S11302108823E4F30895AEECB0E0E8ECF0E08C91D0
S113022080818823E4F30895613041F0E0ECF0E04C
S1130230908195FFFDCF8093C6000895E8ECF0E02F
S1130240908195FFFDCF8093CE000895813041F0D9
S1130250E0ECF0E080818823ECF78091C6000895FB
S1130260E8ECF0E080818823ECF78091CE000895DB
S1130270CF93DF93C82FD0E081E0C031D807A1F439
S1130280809102019091030103968730910538F023
S113029086E090E0909303018093020113C0909351
S11302A00301809302010EC081E0C531D80709F42F
S11302B030D0CA51D14031F481E090E090930101F3
S11302C080930001DF91CF910895CF93DF93C82FDE
S11302D08091C000882344F480E0B8DFD82F80E008
S11302E086DF8D2F90E0C4DF8091C00085FF0EC0B3
S11302F060E08C2F99DF8091C00086FD07C09FEFDE
S1130300E0ECF0E095B9808186FFFCCFDF91CF91DE
S113031008958FEFDADFFFCF1F93CF93DF93EC01C4
S11303208091C00088233CF480E090DF182F80E0A7
S11303305EDF812F9DDFC230D10509F43DC034F466
S1130340209761F0C130D105A9F05DC0C330D1055B
S1130350C9F1C430D10509F44FC055C091E080E023
S11303602091000130910101232B09F490E0C92F61
S1130370D82F4EC0809141018823A9F080910201B9
S113038090910301009761F001979093030180938A
S113039002019BDF8091020190910301892BB1F549
S11303A080E093DFB6DF8091020190910301009712
S11303B009F4AFDF8ADF2CC081E080934201C3E0FF
S11303C0D0E026C08091040190910501009759F472
S11303D01092420182E090E0909305018093040121
S11303E0C4E0D0E015C021E020934201019790932E
S11303F00501809304010CC080914101813041F0DA
S1130400C1E0D0E005C0C0E0D0E002C0C2E0D0E06E
S1130410CE01DF91CF911F9108951F93CF93DF9366
S1130420EC018091C00088233CF480E00FDF182F9A
S113043080E0DDDE812F1CDF209759F491E080E01D
S11304402091000130910101232B09F490E0C92F80
S1130450D82FCE01DF91CF911F9108951F93CF9391
S1130460DF93EC01009719F0019721F00EC0C1E071
S1130470D0E00BC08091C00088233CF480E0E6DE2D
S1130480182F80E0B4DE812FF3DECE01DF91CF910F
S11304901F910895CF93DF9300D000D000D0CDB743
S11304A0DEB78FEF84B915B811B882B980E07DDE6C
S11304B080E09DDE86E0EAE0F1E0DE011196019045
S11304C00D928A95E1F7E6E3F1E0108282E390E091
S11304D0A0E0B0E081839283A383B4838583968371
S11304E0A783B0872EE232E032872187EBE2F1E086
S11304F0108244E650E060E070E0418352836383FD
S1130500748345835683678370872CE831E0328790
S11305102187E0E2F1E0108281839283A383B48394
S113052085839683A783B0878DE092E09287818745
S113053062E370E080E090E0C7DDD7DD7E0187E014
S1130540E80EF11C80B1817080934101DE011196A7
S11305506D01F601019111916F01D80115964D912C
S11305605D916D917C91189711968D919D910D904F
S1130570BC91A02D481759076A077B0781F4F8013D
S113058080810184F285E02D082E000C990B0995D9
S1130590D8018C93F8011582168217821086F8010F
S11305A085819681A781B085C296A11DB11D8583E1
S11305B09683A783B0878091420185B9CE14DF0466
S11305C041F6809147018823E1F310924701BACFA5
S10705D0F894FFCFC9
S11305D40100060002000100000036012B01200185
S11305E430783031003078303200307830330000E5
S9030000FC
