S01500004D696C6573746F6E653147756E2E7372656304
S113000045C0000060C000005EC000005CC000008D
S11300105AC0000058C0000056C0000054C0000080
S113002052C0000050C000004EC000004CC0000090
S11300304AC000007EC0000046C0000044C000006A
S113004042C0000040C000003EC000003CC00000B0
S11300503AC0000038C0000036C0000034C00000C0
S113006032C0000030C000002EC000002CC00000D0
S11300702AC0000028C0000026C0000024C00000E0
S113008022C0000020C000001EC0000011241FBEBA
S1130090CFEFD0E4DEBFCDBF11E0A0E0B1E0E6ECED
S11300A0F5E000E00BBF02C007900D92A031B1074C
S11300B0D9F721E0A0E1B1E001C01D92A833B20755
S11300C0E1F7DFD17EC29CCF6093060170930701F4
S11300D08093080190930901609333017093340174
S11300E0809335019093360108958BE080938100CD
S11300F08DE790E0909389008093880082E080935C
S11301006F001092850010928400809106019091F6
S11301100701A0910801B0910901809333019093E4
S11301203401A0933501B09336018FB780688FBF37
S113013008951F920F920FB60F9211248F939F93DD
S1130140AF93BF938091330190913401A091350115
S1130150B09136010197A109B109809333019093BD
S11301603401A0933501B0933601892B8A2B8B2B54
S113017099F481E080933701809106019091070101
S1130180A0910801B0910901809333019093340147
S1130190A0933501B0933601BF91AF919F918F9198
S11301A00F900FBE0F901F901895813081F0E1ECF5
S11301B0F0E0808188618083E2ECF0E080818660F9
S11301C0808383E38093C4001092C5000895E9EC12
S11301D0F0E0808188618083EAECF0E080818660D1
S11301E0808383E38093CC001092CD000895813006
S11301F029F48091C800882374F008958091C00088
S113020088238CF4A6ECB0E0E0ECF0E08C918081E3
S11302108823E4F30895AEECB0E0E8ECF0E08C91D0
S113022080818823E4F30895613041F0E0ECF0E04C
S1130230908195FFFDCF8093C6000895E8ECF0E02F
S1130240908195FFFDCF8093CE000895813041F0D9
S1130250E0ECF0E080818823ECF78091C6000895FB
S1130260E8ECF0E080818823ECF78091CE000895DB
S113027088B98130A1F48091020190910301039621
S11302808730910538F086E090E0909303018093E5
S1130290020108959093030180930201089582302E
S11302A011F42EC00895833031F481E090E09093EE
S11302B00101809300010895CF93DF93C82F8091AB
S11302C0C000882344F480E0C1DFD82F80E08FDFB2
S11302D08D2F90E0CDDF8091C00085FF0EC060E0DF
S11302E08C2FA2DF8091C00086FD07C09FEFE0EC59
S11302F0F0E095B9808186FFFCCFDF91CF9108951E
S113030081EFDADFFFCF1F93CF93DF93EC0180916E
S1130310C00088233CF480E099DF182F80E067DF79
S1130320812FA6DFC230D10509F43DC034F42097F3
S113033061F0C130D105A9F05DC0C330D105C9F168
S1130340C430D10509F44FC055C091E080E020913C
S1130350000130910101232B09F490E0C92FD82F1B
S11303604EC0809131018823A9F0809102019091BF
S11303700301009761F001979093030180930201B8
S11303809BDF8091020190910301892BB1F580E0FC
S113039093DFB6DF8091020190910301009709F485
S11303A0AFDF8ADF2CC081E080933201C3E0D0E06C
S11303B026C08091040190910501009759F4109290
S11303C0320182E090E09093050180930401C4E03F
S11303D0D0E015C021E020933201019790930501EC
S11303E0809304010CC080913101813041F0C1E05F
S11303F0D0E005C0C0E0D0E002C0C2E0D0E0CE0151
S1130400DF91CF911F9108951F93CF93DF93EC0158
S11304108091C00088233CF480E018DF182F80E02E
S1130420E6DE812F25DF209759F491E080E02091CA
S1130430000130910101232B09F490E0C92FD82F3A
S1130440CE01DF91CF911F9108951F93CF93DF9336
S1130450EC01009719F0019721F00EC0C1E0D0E043
S11304600BC08091C00088233CF480E0EFDE182F9D
S113047080E0BDDE812FFCDECE01DF91CF911F91A4
S11304800895CF93DF9300D000D000D0CDB7DEB76E
S11304908FEF84B915B887B918B811B882B980E05C
S11304A084DE80E0A4DE86E0EAE0F1E0DE0111967D
S11304B001900D928A95E1F7E6E2F1E0108282E381
S11304C090E0A0E0B0E081839283A383B48385832A
S11304D09683A783B08725E232E032872187EBE158
S11304E0F1E0108244E650E060E070E04183528322
S11304F063837483458356836783708723E831E07D
S113050032872187E0E1F1E0108281839283A38323
S1130510B48385839683A783B08784E092E092872F
S1130520818762E370E080E090E0CEDDDEDD7E0175
S113053087E0E80EF11C80B1817080933101DE0107
S113054011966D01F601019111916F01D801159673
S11305504D915D916D917C91189711968D919D911E
S11305600D90BC91A02D481759076A077B0781F4A9
S1130570F80180810184F285E02D082E000C990B8E
S11305800995D8018C93F80115821682178210867A
S1130590F80185819681A781B085C296A11DB11D00
S11305A085839683A783B0878091320185B9CE1461
S11305B0DF0441F6809137018823E1F3109237017B
S10905C0BACFF894FFCF4E
S11305C60100060002000100000026011B011001C3
S9030000FC
