S01500004D696C6573746F6E653147756E2E7372656304
S113000035C1000050C100004EC100004CC10000C9
S11300104AC1000048C1000046C1000044C10000BC
S113002042C1000040C100003EC100003CC10000CC
S11300303AC100008FC1000036C1000034C1000085
S113004032C1000030C100002EC100002CC10000EC
S11300502AC1000028C1000026C1000024C10000FC
S113006022C1000020C100001EC100001CC100000C
S11300701AC1000018C1000016C1000014C100001C
S113008012C1000010C100000EC1000000000000F9
S11300900000005F00000007000700147F147F14B5
S11300A0242A7F2A122313086462364955225000F9
S11300B005030000001C2241000041221C0014081A
S11300C03E081408083E08080050300000080808DC
S11300D00808006060000020100804023E514945F1
S11300E03E00427F400042615149462141454B3127
S11300F01814127F1027454545393C4A49493001B7
S1130100710905033649494936064949291E00360D
S1130110360000005636000008142241001414145E
S1130120141400412214080201510906324979418C
S11301303E7E1111117E7F494949363E414141229B
S11301407F4141221C7F494949417F090909013EF8
S11301504149497A7F0808087F00417F41002040D7
S1130160413F017F081422417F404040407F020C00
S1130170027F7F0408107F3E4141413E7F09090907
S1130180063E4151215E7F091929464649494931B4
S113019001017F01013F4040403F1F2040201F3F9D
S11301A04038403F6314081463070870080761511E
S11301B0494543007F4141000204081020004141A9
S11301C07F00040201020440404040400001020458
S11301D00020545454787F484444383844444420DC
S11301E0384444487F3854545418087E0901020C9A
S11301F05252523E7F0804047800447D400020405F
S1130200443D007F1028440000417F40007C0418D6
S113021004787C0804047838444444387C14141466
S113022008081414187C7C08040408485454542006
S1130230043F4440203C4040207C1C2040201C3C87
S11302404030403C44281028440C5050503C4464F6
S1130250544C44000836410000007F000000413641
S113026008001008081008000000000011241FBE38
S1130270CFEFD0E4DEBFCDBF11E0A0E0B1E0E4EB0E
S1130280F0E100E00BBF02C007900D92AC31B10762
S1130290D9F723E0ACE1B1E001C01D92AE33B2075F
S11302A0E1F77DD305C7ACCE1098662311F0129AFE
S11302B015C0129813C0AC01022E02C05595479583
S11302C00A94E2F740FF02C0139A01C01398149AEB
S11302D014982150310978F7109A089527E030E0F6
S11302E090E0E9CF60E0E0CF089560930601709359
S11302F00701809308019093090160933903709377
S11303003A0380933B0390933C0308958BE08093DE
S113031081008DE790E0909389008093880082E0CB
S113032080936F00109285001092840080910601E2
S113033090910701A0910801B091090180933903BC
S113034090933A03A0933B03B0933C038FB7806828
S11303508FBF08951F920F920FB60F9211248F939F
S11303609F93AF93BF938091390390913A03A091E7
S11303703B03B0913C030197A109B1098093390370
S113038090933A03A0933B03B0933C03892B8A2BAD
S11303908B2B99F481E080933D0380910601909129
S11303A00701A0910801B09109018093390390934A
S11303B03A03A0933B03B0933C03BF91AF919F9149
S11303C08F910F900FBE0F901F901895813081F080
S11303D0E1ECF0E0808188618083E2ECF0E08081F0
S11303E08660808383E38093C4001092C5000895DF
S11303F0E9ECF0E0808188618083EAECF0E08081C0
S11304008660808383E38093CC001092CD000895AE
S1130410813029F48091C800882374F00895809174
S1130420C00088238CF4A6ECB0E0E0ECF0E08C9102
S113043080818823E4F30895AEECB0E0E8ECF0E0CA
S11304408C9180818823E4F30895613041F0E0ECDD
S1130450F0E0908195FFFDCF8093C6000895E8EC0D
S1130460F0E0908195FFFDCF8093CE000895813018
S113047041F0E0ECF0E080818823ECF78091C60045
S11304800895E8ECF0E080818823ECF78091CE00B9
S11304900895CF93DF93089A099A0A9A0B9A0C9AB3
S11304A0119A109A8FE19EE40197F1F700C00000C1
S11304B011989FE725EB81E0915020408040E1F7BF
S11304C000C00000119A109881E20CDF83E10ADF7A
S11304D086E008DF82EC06DF80E204DF89E002DFE9
S11304E080E800DF80E4FEDEC8EFD1E061E080E078
S11304F0DBDE2197D9F788E0F5DE8CE0F3DEDF91CF
S1130500CF91089580E8EEDE80E4ECDE10923703AC
S113051010923803EFE3F1E087E393E01192E817D8
S1130520F907E1F70895262F26952695269590E05C
S113053034E5239F800D911D1124442379F0FC019F
S1130540E15CFE4F677081E090E002C0880F991F64
S11305506A95E2F79081892B80830895FC01E15C20
S1130560FE4F677081E090E002C0880F991F6A9582
S1130570E2F7809590818923808308955F926F923A
S11305807F928F929F92AF92BF92CF92DF92EF921F
S1130590FF920F931F93CF93DF93562E262F30E0B5
S11305A04901880C991C880C991C820E931E1814FE
S11305B019040CF059C08901000F111F000F111FFD
S11305C0000F111F021B130B612CA82EB12CC501A7
S11305D080975C01AA0CBB1CAA0CBB1CA80EB91EFC
S11305E00F2EF8E3CF2EF3E0DF2EF02D0F2EF7E3DE
S11305F0EF2EF3E0FF2EF02D2AC0FE01249130E00F
S1130600872D652D6ED202C0359527958A95E2F720
S113061020FF09C0F6016081670DF701808141E088
S1130620860D81DF08C0F6016081670DF7018081C6
S113063040E0860D78DF7394872D90E08017910752
S1130640E4F26394862D90E0881599056CF41016F5
S11306501106BCF7862D652D44D2E501C80FD11DC6
S1130660C457DF4F712CC9CF8091370391E0980FA5
S1130670852D880F880F850D890F843518F4809394
S113068037030EC010923703E8E3F3E0808191E072
S1130690980F852D880F880F880F8519890F8083FF
S11306A080913803803320F010923703109238037E
S11306B0DF91CF911F910F91FF90EF90DF90CF903A
S11306C0BF90AF909F908F907F906F905F900895B0
S11306D01F93CF93DF93EC018881882339F0162F81
S11306E02196612F4BDF89918111FBCFDF91CF914F
S11306F01F9108950F931F93CF93DF9380E8F2DD4A
S113070080E4F0DDCFE3D1E007E313E061E0899119
S1130710CBDDC017D107D1F7DF91CF911F910F9196
S1130720089588B98130A1F4809102019091030168
S113073003968730910538F086E090E090930301AA
S11307408093020108959093030180930201089518
S1130750823011F42EC00895833031F481E090E0AA
S113076090930101809300010895CF93DF93C82FE4
S11307708091C000882344F480E079DED82F80E0A3
S113078047DE8D2F90E0CDDF8091C00085FF0EC045
S113079060E08C2F5ADE8091C00086FD07C09FEF79
S11307A0E0ECF0E095B9808186FFFCCFDF91CF913A
S11307B0089581EFDADFFFCF1F93CF93DF93EC012E
S11307C08091C00088233CF480E051DE182F80E043
S11307D01FDE812FA6DFC230D10509F43DC034F4F9
S11307E0209761F0C130D105A9F05DC0C330D105B7
S11307F0C9F1C430D10509F44FC055C091E080E07F
S11308002091000130910101232B09F490E0C92FBC
S1130810D82F4EC080913D018823A9F08091020118
S113082090910301009761F00197909303018093E5
S113083002019BDF8091020190910301892BB1F5A4
S113084080E093DFB6DF809102019091030100976D
S113085009F4AFDF8ADF2CC081E080933E01C3E05E
S1130860D0E026C08091040190910501009759F4CD
S113087010923E0182E090E0909305018093040180
S1130880C4E0D0E015C021E020933E01019790938D
S11308900501809304010CC080913D01813041F039
S11308A0C1E0D0E005C0C0E0D0E002C0C2E0D0E0CA
S11308B0CE01DF91CF911F910895EF92FF920F9394
S11308C01F93CF93DF93CDB7DEB760970FB6F8943D
S11308D0DEBF0FBECDBF8C018091C00088233CF4E5
S11308E080E0C5DDF82E80E093DD8F2D1ADF011541
S11308F0110521F00130110569F027C091E080E075
S11309002091000130910101232B09F490E0092F7B
S1130910182F1BC0809103018F93809102018F9344
S113092080E191E09F938F93CE0101967C019F9388
S11309308F93E3D0E7DD61E0C701CADEDBDE0F9011
S11309400F900F900F900F900F90C80160960FB604
S1130950F894DEBF0FBECDBFDF91CF911F910F91F1
S1130960FF90EF9008951F93CF93DF93EC010097CE
S113097019F0019721F00EC0C1E0D0E00BC08091C6
S1130980C00088233CF480E072DD182F80E040DD55
S1130990812FC7DECE01DF91CF911F910895CF93B0
S11309A0DF9300D000D000D0CDB7DEB78FEF84B98D
S11309B015B817B888B911B882B980E007DD69DDC8
S11309C0A1DD80E025DD86E0EAE0F1E0DE011196BC
S11309D001900D928A95E1F7E2E3F1E0108282E35F
S11309E090E0A0E0B0E081839283A383B483858305
S11309F09683A783B08723EB34E032872187E7E22D
S1130A00F1E0108244E650E060E070E041835283FC
S1130A106383748345835683678370872CED33E047
S1130A2032872187ECE1F1E0108281839283A383F2
S1130A30B48385839683A783B0878DE594E09287FA
S1130A40818762E370E080E090E04FDC5FDC7E0150
S1130A5087E0E80EF11C86B1817080933D01DE01D0
S1130A6011966D01F601019111916F01D80115964E
S1130A704D915D916D917C91189711968D919D91F9
S1130A800D90BC91A02D481759076A077B0781F484
S1130A90F80180810184F285E02D082E000C990B69
S1130AA00995D8018C93F801158216821782108655
S1130AB0F80185819681A781B085C296A11DB11DDB
S1130AC085839683A783B08780913E0185B9CE1430
S1130AD0DF0441F680913D038823E1F310923D0346
S1130AE0BACF991B79E004C0991F961708F0961B9A
S1130AF0881F7A95C9F7809508950F931F93CF9314
S1130B00DF93CDB7DEB72E970FB6F894DEBF0FBED6
S1130B10CDBF0D891E8986E08C831A8309838FEFEC
S1130B209FE79E838D83AE01475E5F4F6F89788D0B
S1130B30CE01019610D0EF81F885E00FF11F1082ED
S1130B402E960FB6F894DEBF0FBECDBFDF91CF91C6
S1130B501F910F9108952F923F924F925F926F923F
S1130B607F928F929F92AF92BF92CF92DF92EF9239
S1130B70FF920F931F93CF93DF93CDB7DEB72B97DD
S1130B800FB6F894DEBF0FBECDBF6C017B018A01A6
S1130B90FC0117821682838181FFBFC1CE010196B9
S1130BA03C01F6019381F70193FD859193FF8191B7
S1130BB07F01882309F4ADC1853239F493FD859111
S1130BC093FF81917F01853221F4B60190E0D6D163
S1130BD0E8CF912C212C312CFFE1F315D8F08B3286
S1130BE079F038F4803279F08332A1F4232D206136
S1130BF01DC08D3261F0803369F4232D216016C04D
S1130C00832D8260382EE32DE4603E2E2AC0F32D1E
S1130C10F8601DC037FC2DC020ED280F2A3040F0AD
S1130C208E32B9F436FC75C1232D2064322E19C0DE
S1130C3036FE06C08AE0989E200D1124922E11C023
S1130C40EAE02E9E200D1124222EF32DF0623F2E79
S1130C5008C08C3621F4832D8068382E02C0883673
S1130C6041F4F70193FD859193FF81917F018111F7
S1130C70B3CF982F9F7D9554933028F40C5F1F4F6A
S1130C809FE399830DC0833631F0833771F0833548
S1130C9009F055C020C0F801808189830E5F1F4F81
S1130CA088248394912C530112C02801F2E04F0E42
S1130CB0511CF801A080B18036FE03C0692D70E09C
S1130CC002C06FEF7FEFC5014ED14C018201F32DBD
S1130CD0FF773F2E15C0280122E0420E511CF80177
S1130CE0A080B18036FE03C0692D70E002C06FEFB2
S1130CF07FEFC5012DD14C01F32DF0683F2E820109
S1130D0033FC19C0822D90E088169906A0F4B60130
S1130D1080E290E033D12A94F5CFF50137FC859138
S1130D2037FE81915F01B60190E028D121102A9409
S1130D3021E0821A91088114910479F7E1C0843684
S1130D4011F0893639F5F80137FE07C060817181E9
S1130D50828193810C5F1F4F08C060817181072ECF
S1130D60000C880B990B0E5F1F4FF32DFF763F2E5F
S1130D7097FF09C090958095709561957F4F8F4F2F
S1130D809F4FF0683F2E2AE030E0A30133D1882E34
S1130D90861844C0853731F4232D2F7EB22E2AE0E5
S1130DA030E025C0932D997FB92E8F36C1F018F409
S1130DB0883579F0AEC0803719F0883721F0A9C0A2
S1130DC0E92FE061BE2EB4FE0DC0FB2DF460BF2EF2
S1130DD009C034FE0AC0292F2660B22E06C028E0BE
S1130DE030E005C020E130E002C020E132E0F8014B
S1130DF0B7FE07C060817181828193810C5F1F4FB0
S1130E0006C06081718180E090E00E5F1F4FA301F6
S1130E10F1D0882E8618FB2DFF773F2E36FE0DC0AD
S1130E20232D2E7FA22E891458F434FE0BC032FCDD
S1130E3009C0832D8E7EA82E05C0B82CA32C03C018
S1130E40B82C01C0B92CA4FE0FC0FE01E80DF11DA1
S1130E508081803321F49A2D997EA92E09C0A2FEA7
S1130E6006C0B394B39404C08A2D867809F0B39471
S1130E70A3FC10C0A0FE06C0B21480F4280C922C6F
S1130E809B180DC0B21458F4B60180E290E076D0FD
S1130E90B394F8CFB21418F42B1802C0982C212C58
S1130EA0A4FE0FC0B60180E390E068D0A2FE16C095
S1130EB0A1FC03C088E790E002C088E590E0B60199
S1130EC00CC08A2D867851F0A1FE02C08BE201C0CD
S1130ED080E2A7FC8DE2B60190E050D0891430F492
S1130EE0B60180E390E04AD09A94F8CF8A94F30153
S1130EF0E80DF11D8081B60190E040D08110F6CF5D
S1130F00222009F44ECEB60180E290E037D02A9434
S1130F10F7CFF6018681978102C08FEF9FEF2B9662
S1130F200FB6F894DEBF0FBECDBFDF91CF911F91F6
S1130F300F91FF90EF90DF90CF90BF90AF909F9074
S1130F408F907F906F905F904F903F902F90089577
S1130F50FC010590615070400110D8F78095909580
S1130F608E0F9F1F0895FC01615070400190011085
S1130F70D8F7809590958E0F9F1F08950F931F9318
S1130F80CF93DF93FB01238121FD03C08FEF9FEFFC
S1130F902CC022FF16C04681578124813581421717
S1130FA0530744F4A081B1819D012F5F3F4F3183EA
S1130FB020838C93268137812F5F3F4F378326838D
S1130FC014C08B01EC01FB010084F185E02D09952F
S1130FD0892BE1F6D80116968D919C91179701966D
S1130FE017969C938E931697CE01DF91CF911F9104
S1130FF00F910895FA01AA27283051F1203181F187
S1131000E8946F936E7F6E5F7F4F8F4F9F4FAF4F0C
S1131010B1E03ED0B4E03CD0670F781F891F9A1F1F
S1131020A11D680F791F8A1F911DA11D6A0F711DD3
S1131030811D911DA11D20D009F468943F912AE0DF
S1131040269F11243019305D3193DEF6CF010895C7
S1131050462F4770405D4193B3E00FD0C9F7F6CFF8
S1131060462F4F70405D4A3318F0495D31FD4052C0
S1131070419302D0A9F7EACFB4E0A6959795879556
S113108077956795BA95C9F7009761057105089535
S11310909B01AC010A2E06945795479537952795E1
S11310A0BA95C9F7620F731F841F951FA01D089579
S10710B0F894FFCFDE
S11310B401000600020001000000320127011C01A6
S10F10C442756C6C6574733A202564005E
S9030000FC
