:1000000045C0000060C000005EC000005CC0000091
:100010005AC0000058C0000056C0000054C0000084
:1000200052C0000050C000004EC000004CC0000094
:100030004AC00000E9C0000046C0000044C0000003
:1000400042C0000040C000003EC000003CC00000B4
:100050003AC0000038C0000036C0000034C00000C4
:1000600032C0000030C000002EC000002CC00000D4
:100070002AC0000028C0000026C0000024C00000E4
:1000800022C0000020C000001EC0000011241FBEBE
:10009000CFEFD0E4DEBFCDBF11E0A0E0B1E0ECE7F0
:1000A000F4E000E00BBF02C007900D92A831B10749
:1000B000D9F721E0A8E1B1E001C01D92A733B20752
:1000C000E1F750D1D9C19CCF82309105E1F134F4F0
:1000D000009761F081309105A9F05EC083309105F1
:1000E000C1F18430910509F450C056C031E020E0E0
:1000F00080912E0190912F01892B09F430E0832FFC
:10010000922F0895209130012223B1F02091000117
:10011000309101012115310541F021503109309311
:1001200001012093000182E090E0209100013091D4
:100130000101232B99F5FFCF20910001309101019E
:10014000232B61F5FFCF81E08093310183E090E0C4
:10015000089520910201309103012115310559F4D0
:100160001092310182E090E09093030180930201AC
:1001700084E090E0089541E040933101215031093D
:100180003093030120930201089520913001213022
:1001900029F081E090E0089580E090E00895609378
:1001A0000401709305018093060190930701609309
:1001B0003201709333018093340190933501089597
:1001C0008BE0809381008DE790E09093890080938D
:1001D000880082E080936F00109285001092840066
:1001E0008091040190910501A0910601B091070151
:1001F0008093320190933301A0933401B093350181
:100200008FB780688FBF08951F920F920FB60F921D
:1002100011248F939F93AF93BF938091320190915C
:100220003301A0913401B09135010197A109B109C1
:100230008093320190933301A0933401B093350140
:10024000892B8A2B8B2B99F481E080933601809146
:10025000040190910501A0910601B09107018093DE
:10026000320190933301A0933401B0933501BF91D3
:10027000AF919F918F910F900FBE0F901F90189587
:10028000813081F0E1ECF0E0808188618083E2ECF4
:10029000F0E08081866080838CE08093C4001092BF
:1002A000C5000895E9ECF0E0808188618083EAEC84
:1002B000F0E08081866080838CE08093CC00109297
:1002C000CD000895813041F0E0ECF0E0808188239A
:1002D000ECF78091C6000895E8ECF0E08081882377
:1002E000ECF78091CE00089590E021E088309207ED
:1002F000A1F480910001909101010396873091054E
:1003000038F086E090E09093010180930001089519
:100310009093010180930001089521E08D309207B0
:1003200009F4FFCF8251914031F481E090E0909345
:100330002F0180932E010895CF93DF93EC01009756
:1003400019F0019721F00AC0C1E0D0E007C0809108
:10035000C00088231CF480E0B5DFC6DFCE01DF914A
:10036000CF910895CF93DF9300D000D0CDB7DEB703
:100370008FEF84B915B81AB88BB980E081DFA3E29A
:10038000B1E0BA83A983E8E1F1E0FC83EB831C923E
:1003900044E650E060E070E011964D935D936D93FC
:1003A0007C93149715964D935D936D937C9318975A
:1003B0008CE991E01A969C938E9319971082418351
:1003C000528363837483458356836783708784E68F
:1003D00090E09287818764E670E080E090E0DFDE65
:1003E000EFDE7E0185E0E80EF11C89B1817080931B
:1003F0003001DE0111966D01F601019111916F013D
:10040000D80115964D915D916D917C91189711963B
:100410008D919D910D90BC91A02D481759076A07A9
:100420007B0781F4F80180810184F285E02D082E9C
:10043000000C990B0995D8018C93F801158216824E
:1004400017821086F80185819681A781B0858C5925
:100450009F4FAF4FBF4F85839683A783B087CE143E
:10046000DF0451F68091310185B9809136018823EE
:0C047000E1F310923601B9CFF894FFCFF1
:10047C000600020001000000307830310030783086
:08048C0032003078303300002B
:00000001FF
