:1000000045C0000060C000005EC000005CC0000091
:100010005AC0000058C0000056C0000054C0000084
:1000200052C0000050C000004EC000004CC0000094
:100030004AC00000C5C0000046C0000044C0000027
:1000400042C0000040C000003EC000003CC00000B4
:100050003AC0000038C0000036C0000034C00000C4
:1000600032C0000030C000002EC000002CC00000D4
:100070002AC0000028C0000026C0000024C00000E4
:1000800022C0000020C000001EC0000011241FBEBE
:10009000CFEFD0E4DEBFCDBF11E0A0E0B1E0E2EEF3
:1000A000F2E000E00BBF02C007900D92A630B1074E
:1000B000D9F721E0A6E0B1E001C01D92A831B20756
:1000C000E1F7BAD00CC19CCF82309105A9F034F48D
:1000D0000097D9F18130910551F006C08330910528
:1000E00089F08430910551F180E090E008952091ED
:1000F000110121112DC0089581E08093120183E048
:1001000090E0089520910001309101012115310501
:1001100059F41092120182E090E0909301018093D3
:10012000000184E090E0089541E0409312012150E5
:1001300031093093010120930001089520911101AC
:10014000213041F081E090E0089581E090E0089551
:1001500082E090E008956093020170930301809320
:10016000040190930501609313017093140180932F
:1001700015019093160108958BE0809381008DE71F
:1001800090E0909389008093880082E080936F00D4
:1001900010928500109284008091020190910301D9
:1001A000A0910401B0910501809313019093140173
:1001B000A0931501B09316018FB780688FBF089583
:1001C0001F920F920FB60F9211248F939F93AF93AC
:1001D000BF938091130190911401A0911501B091EA
:1001E00016010197A109B10980931301909314019D
:1001F000A0931501B0931601892B8A2B8B2B99F4B0
:1002000081E0809317018091020190910301A091F8
:100210000401B09105018093130190931401A09300
:100220001501B0931601BF91AF919F918F910F90DF
:100230000FBE0F901F9018958FEF84B915B81AB89C
:100240008BB9E6E0F1E0108284E690E0A0E0B0E057
:1002500081839283A383B48385839683A783B087A6
:1002600084E690E09287818764E670E080E090E029
:1002700072DF82DFC6E0D1E089B181708093110125
:100280004D815E816F81788589819A81AB81BC8146
:10029000481759076A077B0761F48881E985FA8561
:1002A000082E000C990B099588831D821E821F82DF
:1002B00018868D819E81AF81B8858C599F4FAF4F35
:1002C000BF4F8D839E83AF83B8878091120185B91C
:1002D000809117018823E1F310921701CDCFF89494
:0202E000FFCF4E
:0602E20002000100000013
:00000001FF
