S00C00004C6162322E73726563D7
S113000045C0000060C000005EC000005CC000008D
S11300105AC0000058C0000056C0000054C0000080
S113002052C0000050C000004EC000004CC0000090
S11300304AC000007EC0000046C0000044C000006A
S113004042C0000040C000003EC000003CC00000B0
S11300503AC0000038C0000036C0000034C00000C0
S113006032C0000030C000002EC000002CC00000D0
S11300702AC0000028C0000026C0000024C00000E0
S113008022C0000020C000001EC0000011241FBEBA
S1130090CFEFD0E4DEBFCDBF11E0A0E0B1E0EAE3F2
S11300A0F3E000E00BBF02C007900D92A430B1074B
S11300B0D9F721E0A4E0B1E001C01D92AC30B20751
S11300C0E1F71DD138C19CCF609300017093010109
S11300D080930201909303016093050170930601DC
S11300E0809307019093080108958BE08093810029
S11300F08DE790E0909389008093880082E080935C
S11301006F001092850010928400809100019091FC
S11301100101A0910201B091030180930501909324
S11301200601A0930701B09308018FB780688FBFC1
S113013008951F920F920FB60F9211248F939F93DD
S1130140AF93BF938091050190910601A09107019F
S1130150B09108010197A109B10980930501909319
S11301600601A0930701B0930801892B8A2B8B2BDE
S113017099F481E08093090180910001909101013B
S1130180A0910201B09103018093050190930601AF
S1130190A0930701B0930801BF91AF919F918F91F4
S11301A00F900FBE0F901F901895813081F0E1ECF5
S11301B0F0E0808188618083E2ECF0E080818660F9
S11301C0808383E38093C4001092C5000895E9EC12
S11301D0F0E0808188618083EAECF0E080818660D1
S11301E0808383E38093CC001092CD000895813006
S11301F029F48091C800882374F008958091C00088
S113020088238CF4A6ECB0E0E0ECF0E08C918081E3
S11302108823E4F30895AEECB0E0E8ECF0E08C91D0
S113022080818823E4F30895613041F0E0ECF0E04C
S1130230908195FFFDCF8093C6000895E8ECF0E02F
S1130240908195FFFDCF8093CE00089580910B019E
S1130250823039F128F4882349F0813059F04CC0B8
S1130260833049F1843009F43DC046C081E0809375
S11302700B0108958091C80085FF40C081E0809300
S1130280040161E0D1DF8091C80086FF06C081E0EF
S1130290AEDF83E080930B01089582E080930B012D
S11302A008958091C80086FF29C081E0A0DF83E023
S11302B080930B0108958091C80085FF1FC01092A0
S11302C0040161E080E0B0DF8091C80086FF06C0D1
S11302D081E08DDF81E080930B01089584E08093B9
S11302E00B0108958091C80086FF08C081E07FDF7C
S11302F081E080930B01089510920B0108958FEF14
S113030081B912B880E051DF80E071DF81E04DDF18
S113031081E06DDFEADE64E670E080E090E0D4DE48
S113032095DF8091040182B9809109018823E1F36A
S10D033010920901F5CFF894FFCFF5
S107033A01000000BA
S9030000FC
