S01000004E6F6B69614C43442E737265634F
S113000035C1000050C100004EC100004CC10000C9
S11300104AC1000048C1000046C1000044C10000BC
S113002042C1000040C100003EC100003CC10000CC
S11300303AC1000038C1000036C1000034C10000DC
S113004032C1000030C100002EC100002CC10000EC
S11300502AC1000028C1000026C1000024C10000FC
S113006022C1000020C100001EC100001CC100000C
S11300701AC1000018C1000016C1000014C100001C
S113008012C1000010C100000EC1000000000000F9
S11300900000005F00000007000700147F147F14B5
S11300A0242A7F2A122313086462364955225000F9
S11300B005030000001C2241000041221C0014081A
S11300C03E081408083E08080050300000080808DC
S11300D00808006060000020100804023E514945F1
S11300E03E00427F400042615149462141454B3127
S11300F01814127F1027454545393C4A49493001B7
S1130100710905033649494936064949291E00360D
S1130110360000005636000008142241001414145E
S1130120141400412214080201510906324979418C
S11301303E7E1111117E7F494949363E414141229B
S11301407F4141221C7F494949417F090909013EF8
S11301504149497A7F0808087F00417F41002040D7
S1130160413F017F081422417F404040407F020C00
S1130170027F7F0408107F3E4141413E7F09090907
S1130180063E4151215E7F091929464649494931B4
S113019001017F01013F4040403F1F2040201F3F9D
S11301A04038403F6314081463070870080761511E
S11301B0494543007F4141000204081020004141A9
S11301C07F00040201020440404040400001020458
S11301D00020545454787F484444383844444420DC
S11301E0384444487F3854545418087E0901020C9A
S11301F05252523E7F0804047800447D400020405F
S1130200443D007F1028440000417F40007C0418D6
S113021004787C0804047838444444387C14141466
S113022008081414187C7C08040408485454542006
S1130230043F4440203C4040207C1C2040201C3C87
S11302404030403C44281028440C5050503C4464F6
S1130250544C44000836410000007F000000413641
S113026008001008081008000000000011241FBE38
S1130270CFEFD0E4DEBFCDBF11E0A0E0B1E0E6EA0D
S1130280F5E000E00BBF02C007900D92A630B10765
S1130290D9F723E0A6E0B1E001C01D92A030B20777
S11302A0E1F768D17EC1ACCE1098662311F0129AA2
S11302B015C0129813C0AC01022E02C05595479583
S11302C00A94E2F740FF02C0139A01C01398149AEB
S11302D014982150310978F7109A089527E030E0F6
S11302E090E0E9CF60E0E0CF0895CF93DF93089AE0
S11302F0099A0A9A0B9A0C9A119A109A83EC99E02B
S11303000197F1F700C0000011988BE594E4019780
S1130310F1F700C00000119A109881E2E3DF83E155
S1130320E1DF86E0DFDF82ECDDDF80E2DBDF89E036
S1130330D9DF80E8D7DF80E4D5DFC8EFD1E061E022
S113034080E0B2DF2197D9F788E0CCDF8CE0CADF08
S1130350DF91CF91089580E8C5DF80E4C3DF109278
S1130360FE021092FF02E6E0F1E08EEF92E01192BD
S1130370E817F907E1F70895262F2695269526957F
S113038090E034E5239F800D911D1124442379F0DE
S1130390FC01EA5FFE4F677081E090E002C0880FC5
S11303A0991F6A95E2F79081892B80830895FC0157
S11303B0EA5FFE4F677081E090E002C0880F991FEA
S11303C06A95E2F7809590818923808308955F92EE
S11303D06F927F928F929F92AF92BF92CF92DF9251
S11303E0EF92FF920F931F93CF93DF93562E262FF6
S11303F030E04901880C991C880C991C820E931ECC
S1130400181419040CF059C08901000F111F000FB2
S1130410111F000F111F021B130B612CA82EB12CEE
S1130420C50180975C01AA0CBB1CAA0CBB1CA80EBE
S1130430B91E0F2EFFEFCF2EF2E0DF2EF02D0F2E80
S1130440FEEFEF2EF2E0FF2EF02D2AC0FE012491E4
S113045030E0872D652D99D002C0359527958A9572
S1130460E2F720FF09C0F6016081670DF701808182
S113047041E0860D81DF08C0F6016081670DF70158
S1130480808140E0860D78DF7394872D90E080179B
S11304909107E4F26394862D90E0881599056CF435
S11304A010161106BCF7862D652D6FD0E501C80F17
S11304B0D11DC457DF4F712CC9CF8091FE0291E04A
S11304C0980F852D880F880F850D890F843518F4B2
S11304D08093FE020EC01092FE02EFEFF2E08081E4
S11304E091E0980F852D880F880F880F8519890F43
S11304F080838091FF02803320F01092FE021092DC
S1130500FF02DF91CF911F910F91FF90EF90DF9049
S1130510CF90BF90AF909F908F907F906F905F909F
S113052008951F93CF93DF93EC018881882339F0DA
S1130530162F2196612F4BDF89918111FBCFDF911B
S1130540CF911F9108950F931F93CF93DF9380E86A
S1130550C9DE80E4C7DEC6E0D1E00EEF12E061E060
S11305608991A2DEC017D107D1F7DF91CF911F91F6
S11305700F9108958FEF87B918B8B7DEECDE62E00B
S113058080E091E0CEDFDFDFFFCF991B79E004C08C
S1130590991F961708F0961B881F7A95C9F78095BE
S10905A00895F894FFCF5A
S10905A6546573740000AB
S9030000FC
