S01200004D696C6573746F6E65312E7372656331
S113000045C0000060C000005EC000005CC000008D
S11300105AC00000DEC2000056C0000054C00000F8
S113002052C0000050C000004EC000004CC0000090
S11300304AC00000D6C0000046C0000044C0000012
S113004042C0000040C000003EC000003CC00000B0
S11300503AC0000038C0000036C0000034C00000C0
S113006032C0000030C000002EC000002CC00000D0
S11300702AC0000028C0000026C0000024C00000E0
S113008022C0000020C000001EC0000011241FBEBA
S1130090CFEFD0E4DEBFCDBF11E0A0E0B1E0E2ECF1
S11300A0FFE000E00BBF02C007900D92A835B10736
S11300B0D9F721E0A8E5B1E001C01D92A13AB20749
S11300C0E1F704D37CC79CCF181619065CF0089599
S11300D0000021503109E1F74F5F5F4F8417950706
S11300E019F4089540E050E027E033E0F1CF5E9842
S11300F088B95F9A00005F9882E090E0E5CF0895A8
S113010081E0F5CF0895813118F48158F0CF089536
S11301108155EDCF089584E690E0D6DF88E3E7DFEC
S113012086E0E5DF8FE0E3DF81E0E1DF8AE090E075
S1130130CBCF08955E9A88B95F9A00005F9881E0FA
S113014090E0C2CF08950F931F93CF93DF93182F9E
S1130150EB01D6DF8881882351F001E0010F812F64
S1130160D2DF8991E7DF102F88818111F6CFDF91EB
S1130170CF911F910F910895609306017093070129
S11301808093080190930901609392017093930105
S1130190809394019093950108958BE0809381005E
S11301A08DE790E0909389008093880082E08093AB
S11301B06F00109285001092840080910601909146
S11301C00701A0910801B0910901809392019093D5
S11301D09301A0939401B09395018FB780688FBF6A
S11301E008951F920F920FB60F9211248F939F932D
S11301F0AF93BF938091920190919301A091940148
S1130200B09195010197A109B1098093920190934E
S11302109301A0939401B0939501892B8A2B8B2B86
S113022099F481E0809396018091060190910701F1
S1130230A0910801B09109018093920190939301D8
S1130240A0939401B0939501BF91AF919F918F9129
S11302500F900FBE0F901F901895813081F0E1EC44
S1130260F0E0808188618083E2ECF0E08081866048
S1130270808383E38093C4001092C5000895E9EC61
S1130280F0E0808188618083EAECF0E08081866020
S1130290808383E38093CC001092CD000895813055
S11302A029F48091C800882374F008958091C000D7
S11302B088238CF4A6ECB0E0E0ECF0E08C91808133
S11302C08823E4F30895AEECB0E0E8ECF0E08C9120
S11302D080818823E4F30895613041F0E0ECF0E09C
S11302E0908195FFFDCF8093C6000895E8ECF0E07F
S11302F0908195FFFDCF8093CE000895813041F029
S1130300E0ECF0E080818823ECF78091C60008954A
S1130310E8ECF0E080818823ECF78091CE0008952A
S11303201F93CF93DF93FB019081992351F0EB014D
S113033011E0180FE8DE8991FDDE812F988191117B
S1130340F7CFDF91CF911F910895CF93DF9313D30C
S1130350C3E0D0E0BE017FD29093910180939001DD
S11303600AD3BE0178D2282F392F80938E0190931F
S11303708F018091900190919101009789F4232B32
S113038031F487E082B98BB1837E8BB905C081E0FB
S113039082B98BB1837E8BB981E080938D011FC0BC
S11303A0019789F4232B31F488E382B98BB1837EDE
S11303B08BB905C088E082B98BB1837E8BB982E0AA
S11303C080938D010CC0232B29F48BB18C618BB9E4
S11303D012B802C05A9A12B884E080938D01DF915A
S11303E0CF910895CF93DF93CDB7DEB7C054D10931
S11303F00FB6F894DEBF0FBECDBF82E093D08091DC
S113040088018F93809187018F9382E191E09F937C
S11304108F938E010F5F1F4F1F930F93BAD2B801B2
S113042081E091DE0F900F900F900F900F900F903E
S1130430FFCF8F3F09F4D6DF90E0909305018093BE
S113044004010895CF93DF93EC018091C0008823C9
S11304501CF480E053DFEDDFC130D10561F0C23020
S1130460D10569F02097E1F4109288011092870178
S1130470C1E0D0E015C069DFC2E0D0E011C08091D6
S11304808501909186010196909386018093850160
S11304900A9731F41092860110928501C1E0D0E0F0
S11304A0CE01DF91CF9108951F93CF93DF93EC0199
S11304B08091C00088233CF480E020DF182F80E086
S11304C0EEDE812FB6DFCD2B39F5809105018F93B8
S11304D0809104018F93809188018F93809187018B
S11304E08F9380918C018F9380918B018F9382E302
S11304F091E09F938F9389E991E09F938F9349D2E1
S113050069E971E081E00CDF8DB79EB70A960FB6FA
S1130510F8949EBF0FBE8DBF80E090E0DF91CF9135
S11305201F910895CF93DF93C82F8091C000882333
S11305303CF480E0E3DED82F80E0B1DE8D2F79DF5C
S1130540E0ECF0E0808185FFFDCF60E08C2FC4DE1D
S1130550DF91CF91089590918D01981339C08091C6
S11305608E0190918F01892BB1F4809104019091B7
S1130570050103968730910538F086E090E090936A
S113058005018093040104C0909305018093040144
S113059081E090E0C7DF8091890190918A018130E8
S11305A0910529F410928A01109289010895892BEA
S11305B079F481E090E090938A018093890180919D
S11305C08701909188010196909388018093870117
S11305D008951F920F920FB60F9211240BB60F922B
S11305E02F933F934F935F936F937F938F939F9337
S11305F0AF93BF93EF93FF9383B18770809384018C
S113060080918401A8DFFF91EF91BF91AF919F91F9
S11306108F917F916F915F914F913F912F910F90A7
S11306200BBE0F900FBE0F901F9018951F93CF9382
S1130630DF93EC01009719F0019721F00EC0C1E09F
S1130640D0E00BC08091C00088233CF480E056DEEB
S1130650182F80E024DE812FECDECE01DF91CF91D4
S11306601F9108951F93CF93DF93EC018091C000F5
S113067088233CF480E042DE182F80E010DE812FD6
S1130680D8DEC130D10571F0C230D105C1F0209758
S1130690C1F48CE390E090938C0180938B01C1E0D2
S11306A0D0E00FC080918B0190918C01009731F0C4
S11306B0019790938C0180938B0103C093DEC0E07B
S11306C0D0E0CE01DF91CF911F910895CF93DF93B6
S11306D0CDB7DEB728970FB6F894DEBF0FBECDBFF7
S11306E0ECE6F0E080818160808380818260808399
S11306F0808184608083E8E6F0E08081826080838A
S113070078948FEF8AB91BB887B918B814B885B92B
S113071081B912B800DD80E0A0DD80E0C0DD88E0B2
S1130720EAE0F1E0DE01119601900D928A95E1F77D
S1130730E9E7F1E0108288EE93E0A0E0B0E0818385
S11307409283A383B48385839683A783B08782E34C
S113075093E092878187EEE6F1E0108288EC90E0E6
S1130760A0E0B0E081839283A383B48385839683DE
S1130770A783B08722E232E032872187E3E6F1E003
S1130780108281839283A383B48385839683A78312
S1130790B08784E592E092878187E8E5F1E01082F2
S11307A082E390E0A0E0B0E081839283A383B483EA
S11307B085839683A783B08786E193E092878187B8
S11307C062E370E080E090E0D7DCE7DC83E0AADE5F
S11307D07E0189E0E80EF11CDE0111966D01F6013F
S11307E0019111916F01D80115964D915D916D9113
S11307F07C91189711968D919D910D90BC91A02D8F
S1130800481759076A077B0781F4F801808101843E
S1130810F285E02D082E000C990B0995D8018C93D4
S1130820F8011582168217821086F8018581968157
S1130830A781B085C296A11DB11D85839683A78328
S1130840B087CE14DF0459F6809196018823E1F332
S113085010929601C1CF97FB072E16F4009406D090
S113086077FD08D02DD007FC05D03EF490958195F6
S11308709F4F0895709561957F4F0895A1E21A2EB8
S1130880AA1BBB1BFD010DC0AA1FBB1FEE1FFF1F30
S1130890A217B307E407F50720F0A21BB30BE40B80
S11308A0F50B661F771F881F991F1A9469F76095C7
S11308B07095809590959B01AC01BD01CF01089581
S11308C0AA1BBB1B51E107C0AA1FBB1FA617B70772
S11308D010F0A61BB70B881F991F5A95A9F780958E
S11308E09095BC01CD0108958F929F92AF92BF92D3
S11308F0CF92DF92EF92FF92CF93DF93EC01688166
S113090079818A819B81611571058105910521F4A5
S113091064E279ED8BE597E02DE133EF41E050E0BF
S113092013D349015A019B01AC01A7EAB1E428D3CE
S11309306B017C01ACEEB4EFA50194012DD3DC0175
S1130940CB018C0D9D1DAE1DBF1DB7FF03C00197CC
S1130950A109B04888839983AA83BB839F77DF91D9
S1130960CF91FF90EF90DF90CF90BF90AF909F908A
S11309708F900895B9CF80E091E0B6CFA0E0B0E0C9
S11309808093000190930101A0930201B0930301AD
S113099008950F931F93CF93DF93CDB7DEB72E97B0
S11309A00FB6F894DEBF0FBECDBF0D891E8986E059
S11309B08C831A8309838FEF9FE79E838D83AE0117
S11309C0475E5F4F6F89788DCE01019610D0EF811D
S11309D0F885E00FF11F10822E960FB6F894DEBF53
S11309E00FBECDBFDF91CF911F910F9108952F922C
S11309F03F924F925F926F927F928F929F92AF92AB
S1130A00BF92CF92DF92EF92FF920F931F93CF93F7
S1130A10DF93CDB7DEB72B970FB6F894DEBF0FBECA
S1130A20CDBF6C017B018A01FC0117821682838190
S1130A3081FFBFC1CE0101963C01F6019381F7010C
S1130A4093FD859193FF81917F01882309F4ADC1C2
S1130A50853239F493FD859193FF81917F0185322D
S1130A6021F4B60190E0D6D1E8CF912C212C312C81
S1130A70FFE1F315D8F08B3279F038F4803279F055
S1130A808332A1F4232D20611DC08D3261F08033A7
S1130A9069F4232D216016C0832D8260382EE32D46
S1130AA0E4603E2E2AC0F32DF8601DC037FC2DC033
S1130AB020ED280F2A3040F08E32B9F436FC75C18F
S1130AC0232D2064322E19C036FE06C08AE0989E7B
S1130AD0200D1124922E11C0EAE02E9E200D112427
S1130AE0222EF32DF0623F2E08C08C3621F4832D84
S1130AF08068382E02C0883641F4F70193FD859151
S1130B0093FF81917F018111B3CF982F9F7D9554DD
S1130B10933028F40C5F1F4F9FE399830DC08336F5
S1130B2031F0833771F0833509F055C020C0F801E6
S1130B30808189830E5F1F4F88248394912C5301F5
S1130B4012C02801F2E04F0E511CF801A080B180C0
S1130B5036FE03C0692D70E002C06FEF7FEFC50160
S1130B604ED14C018201F32DFF773F2E15C0280191
S1130B7022E0420E511CF801A080B18036FE03C071
S1130B80692D70E002C06FEF7FEFC5012DD14C01DC
S1130B90F32DF0683F2E820133FC19C0822D90E0C2
S1130BA088169906A0F4B60180E290E033D12A9425
S1130BB0F5CFF50137FC859137FE81915F01B601D0
S1130BC090E028D121102A9421E0821A91088114FE
S1130BD0910479F7E1C0843611F0893639F5F801CA
S1130BE037FE07C060817181828193810C5F1F4F42
S1130BF008C060817181072E000C880B990B0E5F71
S1130C001F4FF32DFF763F2E97FF09C090958095D7
S1130C10709561957F4F8F4F9F4FF0683F2E2AE06C
S1130C2030E0A30133D1882E861844C0853731F4CF
S1130C30232D2F7EB22E2AE030E025C0932D997FFC
S1130C40B92E8F36C1F018F4883579F0AEC08037EC
S1130C5019F0883721F0A9C0E92FE061BE2EB4FE57
S1130C600DC0FB2DF460BF2E09C034FE0AC0292F2D
S1130C702660B22E06C028E030E005C020E130E056
S1130C8002C020E132E0F801B7FE07C06081718143
S1130C90828193810C5F1F4F06C06081718180E067
S1130CA090E00E5F1F4FA301F1D0882E8618FB2D14
S1130CB0FF773F2E36FE0DC0232D2E7FA22E8914E2
S1130CC058F434FE0BC032FC09C0832D8E7EA82E4E
S1130CD005C0B82CA32C03C0B82C01C0B92CA4FEA9
S1130CE00FC0FE01E80DF11D8081803321F49A2D9F
S1130CF0997EA92E09C0A2FE06C0B394B39404C081
S1130D008A2D867809F0B394A3FC10C0A0FE06C017
S1130D10B21480F4280C922C9B180DC0B21458F411
S1130D20B60180E290E076D0B394F8CFB21418F410
S1130D302B1802C0982C212CA4FE0FC0B60180E30E
S1130D4090E068D0A2FE16C0A1FC03C088E790E042
S1130D5002C088E590E0B6010CC08A2D867851F077
S1130D60A1FE02C08BE201C080E2A7FC8DE2B601C5
S1130D7090E050D0891430F4B60180E390E04AD07A
S1130D809A94F8CF8A94F301E80DF11D8081B6019D
S1130D9090E040D08110F6CF222009F44ECEB60167
S1130DA080E290E037D02A94F7CFF60186819781CC
S1130DB002C08FEF9FEF2B960FB6F894DEBF0FBEE5
S1130DC0CDBFDF91CF911F910F91FF90EF90DF90F6
S1130DD0CF90BF90AF909F908F907F906F905F90D7
S1130DE04F903F902F900895FC0105906150704002
S1130DF00110D8F7809590958E0F9F1F0895FC01E0
S1130E006150704001900110D8F7809590958E0F35
S1130E109F1F08950F931F93CF93DF93FB012381AB
S1130E2021FD03C08FEF9FEF2CC022FF16C0468127
S1130E305781248135814217530744F4A081B1813D
S1130E409D012F5F3F4F318320838C93268137810F
S1130E502F5F3F4F3783268314C08B01EC01FB01C6
S1130E600084F185E02D0995892BE1F6D8011696C9
S1130E708D919C911797019617969C938E93169734
S1130E80CE01DF91CF911F910F910895FA01AA2706
S1130E90283051F1203181F1E8946F936E7F6E5FB9
S1130EA07F4F8F4F9F4FAF4FB1E03ED0B4E03CD067
S1130EB0670F781F891F9A1FA11D680F791F8A1F4A
S1130EC0911DA11D6A0F711D811D911DA11D20D0B1
S1130ED009F468943F912AE0269F11243019305D6B
S1130EE03193DEF6CF010895462F4770405D41935C
S1130EF0B3E00FD0C9F7F6CF462F4F70405D4A33A9
S1130F0018F0495D31FD4052419302D0A9F7EACF70
S1130F10B4E0A6959795879577956795BA95C9F79F
S1130F2000976105710508959B01AC010A2E069492
S1130F305795479537952795BA95C9F7620F731F4B
S1130F40841F951FA01D0895052E97FB16F4009489
S1130F500FD057FD05D092DC07FC02D046F408C040
S1130F6050954095309521953F4F4F4F5F4F0895D1
S1130F7090958095709561957F4F8F4F9F4F089501
S1130F800FD0A59F900DB49F900DA49F800D911D2F
S1130F9011240895B7FFF4CFF3DF821B930B089558
S1130FA0A29FB001B39FC001A39F700D811D1124A6
S1130FB0911DB29F700D811D1124911D0895F89407
S1050FC0FFCF5D
S1130FC20100000006000100000079016E016301C6
S1130FD2580147616D65204F7665722C20202020D0
S1130FE2202046696E616C2053636F72653A202536
S1130FF2640054696D653A20253032642020202033
S11310022020202053636F72653A20256420416DAD
S10B10126D6F3A256420000013
S9030000FC
